:100000000C94DD000C94FA000C94FA000C94FA00A5
:100010000C94FA000C94FA000C94FA000C94FA0078
:100020000C94FA000C94FA000C94FA000C94FA0068
:100030000C94FA000C94FA000C94FA000C94FA0058
:100040000C942E010C94FA000C94FA000C94FA0013
:100050000C94FA000C94FA000C94FA000C94FA0038
:100060000C94FA000C94FA000C94FA000C94FA0028
:100070000C94FA000C94FA000C94FA006E616E0075
:10008000696E660000407A10F35A00A0724E18099B
:100090000010A5D4E80000E87648170000E40B54EF
:1000A000020000CA9A3B000000E1F50500008096BE
:1000B0009800000040420F000000A08601000000F0
:1000C000102700000000E8030000000064000000AA
:1000D00000000A00000000000100000000002C7673
:1000E000D888DC674F0823DFC1DFAE59E1B1B7968E
:1000F000E5E3E453C63AE651997696E8E6C28426EB
:10010000EB898C9B62ED407C6FFCEFBC9C9F40F2C6
:10011000BAA56FA5F490055A2AF75C936B6CF96742
:100120006DC11BFCE0E40D47FEF520E6B500D0ED07
:10013000902E0300943577050080841E080000206F
:100140004E0A000000C80C333333330F986E12830D
:100150001141EF8D2114893BE65516CFFEE6DB18E1
:10016000D1844B381BF77C1D901DA4BBE4242032A6
:1001700084725E228100C9F124ECA1E53D274E4145
:100180004E494E495459494E46CDCCCC3D0AD72311
:100190003C17B7D13877CC2B329595E6241FB14F59
:1001A0000A000020410000C84200401C4620BCBE9E
:1001B0004CCA1B0E5AAEC59D740011241FBECFEF52
:1001C000D0E1DEBFCDBF11E0A0E0B1E0E2E2FDE1B1
:1001D00002C005900D92AC35B107D9F721E0ACE52E
:1001E000B1E001C01D92A237B207E1F70E94F50508
:1001F0000C948F0E0C940000CF93C82F8A3019F402
:100200008DE00E94FC008091C00085FFFCCFC09370
:10021000C6008C2FCC0F990BCF9108958091C00010
:1002200087FFFCCF8091C60090E008951092C50032
:100230008DE48093C40088E18093C10086E08093C0
:10024000C200EAE6F1E08EE091E093838283958339
:10025000848380E091E09183808308951F920F92C0
:100260000FB60F9211248F939F93AF93BF938091FA
:10027000660190916701A0916801B09169010196B2
:10028000A11DB11D8093660190936701A093680141
:10029000B0936901BF91AF919F918F910F900FBE65
:1002A0000F901F90189582E084BD93E095BD9BEB65
:1002B00097BD80936E000895559AE0E8F0E0808144
:1002C00080688083E1E8F0E08081816180838FEF46
:1002D00091E090938700809386000895F894609150
:1002E000660170916701809168019091690178942D
:1002F000089580917A00806480937A0080917A00DA
:1003000086FDFCCF809178009091790008950F933D
:100310001F93CF93DF93CDB7DEB760970FB6F894F6
:10032000DEBF0FBECDBF8091C00087FF74C080913B
:100330006A0190916B010E948B0A182F8A3009F490
:100340006AC08D3009F467C000E08091C00087FF6B
:10035000FCCF80916A0190916B010E948B0A8A30D8
:1003600001F5E1E0F0E0EC0FFD1FE00FF11D108260
:10037000CE0101960E949909193409F444C064F42D
:10038000143409F048C060931C0170931D018093E0
:100390001E0190931F013FC0103561F1133571F0BC
:1003A0003AC08D30F1F20F3080F6E1E0F0E0EC0F72
:1003B000FD1FE00FF11D80830F5FC7CF0E941F0854
:1003C000611524E072072CF47093290160932801D1
:1003D00006C08FEF93E090932901809328018091CC
:1003E00028019091290197FF16C0109229011092BF
:1003F000280111C060932401709325018093260188
:100400009093270108C0609320017093210180938D
:1004100022019093230160960FB6F894DEBF0FBEC1
:10042000CDBFDF91CF911F910F9108954F925F92B1
:100430006F927F92AF92BF92CF92DF92EF92FF9234
:100440000F931F93CF93DF93CDB7DEB728970FB6E7
:10045000F894DEBF0FBECDBFD62EC72EB82EA92E64
:1004600028013901BA0180E090E00E94550823E399
:1004700033E343E550E40E940C0920E030E040E81B
:100480005AE30E940C099E012F5F3F4F79018901B9
:1004900024E046E00E947909C301B2010E941F08CE
:1004A0007F936F93FF92EF92AF92BF92CF92DF92C2
:1004B0008AE391E09F938F930E94050B0FB6F89407
:1004C000DEBF0FBECDBF28960FB6F894DEBF0FBEBD
:1004D000CDBFDF91CF911F910F91FF90EF90DF90F3
:1004E000CF90BF90AF907F906F905F904F900895A6
:1004F000A0E1B0E0EEE7F2E00C9476077C011B018E
:100500006A01FC0117821682838181FF44C39E0128
:100510002F5F3F4F3901F7019381F10193FD8591E1
:1005200093FF81911F01882309F431C3853239F487
:1005300093FD859193FF81911F01853239F4B701B5
:1005400090E00E94C90A56016501E5CF10E0512CE8
:10055000912CFFE1F915D8F08B3279F038F4803224
:1005600079F08332A1F4F92DF0612EC08D3261F063
:10057000803369F4292D21602DC0392D3260932EEE
:10058000892D8460982E2AC0E92DE86015C097FC5B
:100590002DC020ED280F2A3088F496FE06C03AE0E0
:1005A000139F200D1124122F19C08AE0589E200D90
:1005B0001124522EE92DE0629E2E10C08E3231F4AD
:1005C00096FCE5C2F92DF0649F2E08C08C3621F40C
:1005D000292D2068922E02C0883641F4F10193FD46
:1005E000859193FF81911F018111B3CF9BEB980FF0
:1005F000933020F4992D9061805E07C09BE9980F9D
:10060000933008F066C1992D9F7E96FF16E09F7388
:10061000992E853619F49064992E08C0863621F4F7
:10062000392F3068932E02C01111115097FE07C068
:100630001C3350F444244394410E27E00BC018307F
:1006400038F027E017E005C027E09CE3492E02C000
:10065000212F412C560184E0A80EB11CF6016081C7
:10066000718182819381042DA3010E949D096C01F7
:10067000F981FC87F0FF02C0F3FF06C091FC06C0C1
:1006800092FE06C000E205C00DE203C00BE201C00D
:1006900000E08C858C7019F001115AC29BC297FE44
:1006A00010C04C0CFC85F4FF04C08A81813309F42E
:1006B0004A94141474F528E0241578F588E0482E3F
:1006C0002CC096FC2AC0812F90E08C159D059CF0D3
:1006D0003CEFC3163FEFD30674F0892D8068982E47
:1006E0000AC0E2E0F0E0EC0FFD1FE10FF11D808198
:1006F000803319F411501111F4CF97FE0EC0442429
:100700004394410E812F90E0C816D9062CF41C1991
:1007100004C04424439401C010E097FE06C01C149A
:100720001D0434F4C601019605C085E090E002C0C6
:1007300081E090E001110196112331F0212F30E08A
:100740002F5F3F4F820F931F252D30E082179307B5
:1007500014F4581A01C0512C892D897049F4552080
:1007600039F0B70180E290E00E94C90A5A94F7CFAD
:10077000002329F0B701802F90E00E94C90A93FC62
:1007800009C0552039F0B70180E390E00E94C90A02
:100790005A94F7CF97FE4CC04601D7FE02C0812C79
:1007A000912CC60188199909F301E80FF91FFE87FA
:1007B000ED87960124193109388B2F87012F10E01E
:1007C0001195019511093FEF8316930629F4B7019E
:1007D0008EE290E00E94C90AC814D9044CF08F85BB
:1007E00098898815990524F4ED85FE85818101C0DD
:1007F00080E3F1E08F1A91082D853E852F5F3F4FF2
:100800003E872D87801691062CF0B70190E00E945C
:10081000C90AD9CFC814D90441F49A81963320F477
:10082000953319F43C8534FF81E3B70190E04EC065
:100830008A81813319F09C859F7E9C87B70190E067
:100840000E94C90A111105C094FC18C085E690E009
:1008500017C0B7018EE290E00E94C90A1E5F82E0D5
:1008600001E0080FF301E80FF11D8081B70190E06E
:100870000E94C90A802F0113F3CFE6CF85E490E0F0
:10088000B7010E94C90AD7FC06C0C114D10441F4C3
:10089000EC85E4FF05C0D194C194D1088DE201C07C
:1008A0008BE2B70190E00E94C90A80E32AE0C216F9
:1008B000D1042CF08F5FFAE0CF1AD108F7CFB7013F
:1008C00090E00E94C90AB701C601C0960E94C90AF9
:1008D00054C1833631F0833779F0833509F056C03F
:1008E00020C0560132E0A30EB11CF601808189833D
:1008F00001E010E0630112C05601F2E0AF0EB11C3E
:10090000F601C080D18096FE03C0612F70E002C066
:100910006FEF7FEFC6010E94800A8C01F92DFF77EF
:1009200014C0560122E0A20EB11CF601C080D18095
:1009300096FE03C0612F70E002C06FEF7FEFC6012B
:100940000E94750A8C01F92DF0689F2EF3FD1AC0E4
:10095000852D90E008171907A8F4B70180E290E010
:100960000E94C90A5A94F4CFF60197FC859197FE2C
:1009700081916F01B70190E00E94C90A51105A9409
:10098000015011090115110579F7F7C0843611F0EE
:10099000893661F5560197FE09C024E0A20EB11C0C
:1009A000F60160817181828193810AC0F2E0AF0E0D
:1009B000B11CF60160817181072E000C880B990B28
:1009C000F92DFF769F2E97FF09C090958095709521
:1009D00061957F4F8F4F9F4FF0689F2E2AE030E048
:1009E000A3010E944B0BC82EC6183FC0092D8537A6
:1009F00021F40F7E2AE030E01DC0097F8F3691F090
:100A000018F4883559F0C3C0803719F0883711F0D1
:100A1000BEC0006104FF09C0046007C094FE08C0A6
:100A2000066006C028E030E005C020E130E002C0EA
:100A300020E132E0560107FF09C084E0A80EB11C96
:100A4000F601608171818281938108C0F2E0AF0E6E
:100A5000B11CF6016081718180E090E0A3010E94E9
:100A60004B0BC82EC6180F77902E96FE0BC0092D83
:100A70000E7FC11650F494FE0AC092FC08C0092DE6
:100A80000E7E05C0DC2C092D03C0DC2C01C0D12E4C
:100A900004FF0DC0FE01EC0DF11D8081803311F4C7
:100AA000097E09C002FF06C0D394D39404C0802FEE
:100AB000867809F0D39403FD11C000FF06C01C2DF9
:100AC000D51480F4150D1D190DC0D51458F4B701B7
:100AD00080E290E00E94C90AD394F7CFD51410F4B5
:100AE0005D1801C0512C04FF10C0B70180E390E0F5
:100AF0000E94C90A02FF17C001FD03C088E790E009
:100B000002C088E590E0B7010CC0802F867859F0CC
:100B100001FF02C08BE201C080E207FD8DE2B70158
:100B200090E00E94C90AC11638F4B70180E390E052
:100B30000E94C90A1150F7CFCA94F301EC0DF11DC0
:100B40008081B70190E00E94C90AC110F5CF15C09D
:100B5000F4E0F51560F584E0581A93FE1FC001110A
:100B600027C02C8523FF2AC00CE710E0392D3071F7
:100B7000932EF8018491811124C0552009F4E4CC0E
:100B8000B70180E290E00E94C90A5A94F6CFF701BB
:100B90008681978126C08FEF9FEF23C0B70180E247
:100BA00090E00E94C90A5A945110F8CFD8CF512C26
:100BB000B701802F90E00E94C90AD3CF00E810E06F
:100BC000D5CF91108052B70190E00E94C90A0F5F03
:100BD0001F4FCFCF23E0251510F483E0BDCF512C5C
:100BE000C0CF6096E2E10C949207CF93DF93CDB72C
:100BF000DEB762970FB6F894DEBF0FBECDBF279A5F
:100C00000E9416010E9453010E945C0180917E00A7
:100C1000826080937E0080917C00816480937C0060
:100C200086E880937A00789485E491E00E941B0B1B
:100C3000412C512C3201C12CD12C7601212C312C8C
:100C40000E9487010E946E0180905C0190905D017E
:100C5000A0905E01B0905F019B01AC012819390999
:100C60004A095B0949015A013AE083169104A1043B
:100C7000B10408F420C160935C0170935D0180931E
:100C80005E0190935F010E9479011C01409128014F
:100C900050912901481B590B5A8B498BCA01019667
:100CA000039710F41A8A198AA989BA89BD01BB0F62
:100CB000880B990B0E9457086B017C01209124013D
:100CC0003091250140912601509127010E940C0985
:100CD00069837A838B839C83809160019091610109
:100CE00069897A89681B790B072E000C880B990B90
:100CF0000E94570820911C0130911D0140911E0156
:100D000050911F010E940C096D837E838F83988709
:100D100029893A89309361012093600180912001F3
:100D200090912101A0912201B091230189879A8796
:100D3000AB87BC878090620190906301A0906401B2
:100D4000B0906501A5019401BC01CD010E940C0980
:100D500029813A814B815C810E94AE072D813E81C1
:100D60004F8158850E94AE076D877E878F87988B4D
:100D700020E030E84FEF53E40E94070987FD05C0EB
:100D8000A989BA89B7FF1FC010C020E030E0A901CF
:100D90006D857E858F8598890E941A0818162CF01B
:100DA00029893A891216130674F4A5019401C70122
:100DB000B6010E94AE076093620170936301809355
:100DC00064019093650120E030E64FE156E46091C4
:100DD00062017091630180916401909165010E94AC
:100DE0000709181664F480E090E6AFE1B6E480935A
:100DF000620190936301A0936401B093650120E0C8
:100E000030E64FE156EC6091620170916301809190
:100E10006401909165010E941A0887FF0CC080E070
:100E200090E6AFE1B6EC8093620190936301A093EA
:100E30006401B0936501209162013091630140919A
:100E400064015091650169857A858B859C850E9436
:100E50000C0929813A814B815C810E94AE072D816A
:100E60003E814F8158850E94AE076B017C0120E0D6
:100E700030E84FEF53E40E94070918166CF020E0A9
:100E800030E0A901C701B6010E941A0887FF0BC014
:100E9000C12CD12C760107C0C12C80E8D82EEE24BD
:100EA000EA9483E4F82EC701B6010E9426087093E5
:100EB0008900609388000E946E01DC01CB018419D7
:100EC0009509A609B70984369105A105B10508F46D
:100ED000B7CE0E946E012B013C0197018601A10152
:100EE0000E94160285B1805885B9AACE2F923F92F2
:100EF0004F925F926F927F928F929F92AF92BF922A
:100F0000CF92DF92EF92FF920F931F93CF93DF93D5
:100F1000CDB7DEB7CA1BDB0B0FB6F894DEBF0FBE32
:100F2000CDBF09942A88398848885F846E847D847F
:100F30008C849B84AA84B984C884DF80EE80FD8081
:100F40000C811B81AA81B981CE0FD11D0FB6F894F7
:100F5000DEBF0FBECDBFED0108955058BB27AA27B5
:100F60000E94C5070C94CD080E94BF0838F00E946B
:100F7000C60820F039F49F3F19F426F40C94BC08FD
:100F80000EF4E095E7FB0C94B608E92F0E94DE080A
:100F900058F3BA17620773078407950720F079F4AE
:100FA000A6F50C9400090EF4E0950B2EBA2FA02D97
:100FB0000B01B90190010C01CA01A0011124FF2706
:100FC000591B99F0593F50F4503E68F11A16F04001
:100FD000A22F232F342F4427585FF3CF4695379500
:100FE0002795A795F0405395C9F77EF41F16BA0BC5
:100FF000620B730B840BBAF09150A1F0FF0FBB1F73
:10100000661F771F881FC2F70EC0BA0F621F731FBB
:10101000841F48F4879577956795B795F7959E3F18
:1010200008F0B0CF9395880F08F09927EE0F9795A9
:10103000879508950E94920808F481E008950E941F
:1010400026086894B1110C94010908950E94E608DD
:1010500088F09F5798F0B92F9927B751B0F0E1F079
:10106000660F771F881F991F1AF0BA95C9F714C029
:10107000B13091F00E940009B1E008950C9400098C
:10108000672F782F8827B85F39F0B93FCCF3869562
:1010900077956795B395D9F73EF4909580957095BF
:1010A00061957F4F8F4F9F4F0895E89409C097FB3C
:1010B0003EF490958095709561957F4F8F4F9F4F2F
:1010C0009923A9F0F92F96E9BB279395F695879573
:1010D00077956795B795F111F8CFFAF4BB0F11F436
:1010E00060FF1BC06F5F7F4F8F4F9F4F16C08823DD
:1010F00011F096E911C0772321F09EE8872F762F13
:1011000005C0662371F096E8862F70E060E02AF053
:101110009A95660F771F881FDAF7880F969587953F
:1011200097F90895990F0008550FAA0BE0E8FEEF14
:1011300016161706E807F907C0F012161306E4079B
:10114000F50798F0621B730B840B950B39F40A2694
:1011500061F0232B242B252B21F408950A2609F472
:10116000A140A6958FEF811D811D089597F99F6776
:1011700080E870E060E008959FEF80EC089500241F
:101180000A941616170618060906089500240A94EC
:1011900012161306140605060895092E0394000C72
:1011A00011F4882352F0BB0F40F4BF2B11F460FF01
:1011B00004C06F5F7F4F8F4F9F4F089557FD90582A
:1011C000440F551F59F05F3F71F04795880F97FB0B
:1011D000991F61F09F3F79F08795089512161306C5
:1011E0001406551FF2CF4695F1DF08C016161706F4
:1011F0001806991FF1CF8695710561050894089529
:10120000E894BB2766277727CB0197F908950E94BA
:10121000920808F48FEF08950E941F090C94CD08DE
:101220000E94BF0838F00E94C60820F0952311F0F4
:101230000C94B6080C94BC0811240C9401090E946B
:10124000DE0870F3959FC1F3950F50E0551F629F24
:10125000F001729FBB27F00DB11D639FAA27F00D0F
:10126000B11DAA1F649F6627B00DA11D661F829F36
:101270002227B00DA11D621F739FB00DA11D621F1B
:10128000839FA00D611D221F749F3327A00D611D38
:10129000231F849F600D211D822F762F6A2F11241A
:1012A0009F5750409AF0F1F088234AF0EE0FFF1F4D
:1012B000BB1F661F771F881F91505040A9F79E3FA4
:1012C000510580F00C94B6080C9401095F3FE4F3DB
:1012D000983ED4F3869577956795B795F795E795FA
:1012E0009F5FC1F7FE2B880F911D9695879597F903
:1012F0000895EF920F931F93CF93DF93E80147FD7B
:1013000002C034E001C034E1042E000C550B57FF3D
:1013100003C0519541955109E32E022F242FAE01B0
:101320000E94A90BCE01DF91CF911F910F91EF90F9
:101330000895662777270C94030D283008F027E0DE
:101340003327DA01990F311D87FD91600096610501
:10135000710539F432602E5F3D9330E32A95E1F751
:1013600008959F3F30F080387105610509F03C5FBA
:101370003C5F3D93913008F08068911DDF93CF93DF
:101380001F930F93FF92EF92192F987F9695E92F55
:1013900096959695E90FFF27E252FF4F992733273D
:1013A000EE24FF24A701E70105900894079428F490
:1013B000360FE71EF81E491F511D660F771F881F45
:1013C000991F0694A1F70590079428F4E70EF81EDC
:1013D000491F561FC11D770F881F991F661F06944E
:1013E000A1F70590079428F4F80E491F561FC71F50
:1013F000D11D880F991F661F771F0694A1F70590CE
:10140000079420F4490F561FC71FD81F990F661F56
:10141000771F881F0694A9F784911095177041F0E3
:10142000D695C79557954795F794E7941A95C1F7C0
:10143000E4E8F0E0689415901591359165919591E7
:1014400005907FE27395E118F10A430B560BC90B27
:10145000D009C0F7E10CF11E431F561FC91FD01D54
:101460007EF4703311F48A95E6CFE894015030F0A1
:10147000080F0AF40027021708F4202F2395022FE3
:101480007A3328F079E37D932A95E9F710C07D93AC
:101490002A9589F606949795679537951795179429
:1014A000E118F10A430B560BC90BD00998F02395AC
:1014B0007E9173957A3308F070E37C932013B8F72C
:1014C0007E9170617D9330F0839571E37D9370E33D
:1014D0002A95E1F71124EF90FF900F911F91CF9182
:1014E000DF91992787FD90950895FC010590615043
:1014F00070400110D8F7809590958E0F9F1F08952A
:10150000FC016150704001900110D8F780959095D2
:101510008E0F9F1F0895CF93DF93EC012B8120FF47
:1015200033C026FF0AC02F7B2B838E819F810196BB
:101530009F838E838A8190E029C022FF0FC0E881BB
:10154000F9818081082E000C990B009719F4206214
:101550002B831AC03196F983E8830EC0EA85FB8598
:10156000099597FF09C02B81019611F080E201C017
:1015700080E1822B8B8308C02E813F812F5F3F4FFC
:101580003F832E83992702C08FEF9FEFDF91CF918A
:1015900008950F931F93CF93DF93FB01238121FDC8
:1015A00003C08FEF9FEF2CC022FF16C046815781EA
:1015B000248135814217530744F4A081B1819D01F4
:1015C0002F5F3F4F318320838C93268137812F5F9C
:1015D0003F4F3783268314C08B01EC01FB0100844D
:1015E000F185E02D0995892BE1F6D80116968D91AC
:1015F0009C911797019617969C938E931697CE0100
:10160000DF91CF911F910F910895A0E0B0E0EBE042
:10161000FBE00C948607AE014B5F5F4FFA016191CE
:101620007191AF0180916C0190916D010E947802DF
:10163000E2E00C94A2070F931F93CF93DF93E09106
:101640006C01F0916D01238121FF1BC08C01D0E062
:10165000C0E0F80181918F0160916C0170916D0182
:10166000DB011896ED91FC911997882331F00995CB
:10167000892B79F3DFEFCFEFECCF8AE00995892B47
:1016800019F08FEF9FEF02C08D2F9C2FDF91CF912C
:101690001F910F910895FA01AA27283051F12031A6
:1016A00081F1E8946F936E7F6E5F7F4F8F4F9F4FF6
:1016B000AF4FB1E03ED0B4E03CD0670F781F891F38
:1016C0009A1FA11D680F791F8A1F911DA11D6A0F06
:1016D000711D811D911DA11D20D009F468943F91B9
:1016E0002AE0269F11243019305D3193DEF6CF01B8
:1016F0000895462F4770405D4193B3E00FD0C9F77E
:10170000F6CF462F4F70405D4A3318F0495D31FDEA
:101710004052419302D0A9F7EACFB4E0A69597953D
:10172000879577956795BA95C9F700976105710513
:1017300008959B01AC010A2E06945795479537955D
:101740002795BA95C9F7620F731F841F951FA01DB7
:101750000895A9E0B0E0EFEAFBE00C947C076A0191
:10176000122FB02E2BE3201720F0FF24F394F00E5D
:1017700002C02CE3F22E0F2D27E0AE014F5F5F4F2A
:101780000E949D09BC014981842F8970813031F00C
:10179000E1FC06C0E0FE06C090E205C09DE203C089
:1017A0009BE201C090E05E2D507143FF3CC091115F
:1017B00002C083E001C084E0811718F4212F281BA8
:1017C00001C020E051110BC0F601822F30E28823C6
:1017D00019F031938150FBCFC20ED11C20E0992328
:1017E00029F0D6019C93F60131966F01C60103964C
:1017F000E2FE0AC03EE4D6013C9341E411964C93CC
:10180000119712963C9306C03EE6F601308341E6FE
:1018100041833283FC01322F40E2332309F442C07A
:1018200041933150FACF42FF44C0911102C083E08E
:1018300001C084E0811718F4212F281B01C020E08B
:1018400051110BC0F601822F30E2882319F0319339
:101850008150FBCFC20ED11C20E0992329F0D60184
:101860009C93F60131966F01C6010396E2FE0BC010
:1018700039E4D6013C933EE411963C93119736E44B
:1018800012963C9307C039E6F60130833EE6318379
:1018900036E63283FC01322F40E2332319F04193C4
:1018A0003150FBCFFC01E20FF11D10828EEF9FEF54
:1018B000A6C021E030E0911102C020E030E0161611
:1018C00017061CF4FB01319602C0E1E0F0E02E0F98
:1018D0003F1FBB2021F0EB2DF0E0319602C0E0E08D
:1018E000F0E02E0F3F1FE12FF0E02E173F071CF412
:1018F000121B212F01C020E08E2D887159F4F601B2
:10190000822F30E2882319F031938150FBCFC20E31
:10191000D11C20E0992329F0D6019C93F601319641
:101920006F0151110BC0F601822F90E3882319F04B
:1019300091938150FBCFC20ED11C20E00F2D060FDA
:101940009A81342F307144FF03C0913309F4015060
:10195000101624F4093018F008E001C001E0AB01D2
:1019600077FF02C040E050E0FB01E41BF50BA1E073
:10197000B0E0AC0FBD1FEA0FFB1F8EE2A82E4B019B
:10198000801A91080B2D10E01195019511094F3F18
:10199000BFEF5B0721F4D601AC9211966D0164177D
:1019A00075072CF08416950614F4818101C080E33C
:1019B000415051093196D60111967D0140175107CA
:1019C00024F0D6018C936701E2CF6417750739F4D0
:1019D000963320F4953319F4311101C081E3F601F7
:1019E0008083F701822F90E2882319F09193815030
:1019F000FBCFF701E20FF11D108280E090E0299605
:101A0000ECE00C949807A0E0B0E0E9E0FDE00C9475
:101A10007C07EC016B016115710519F0FB019183E5
:101A200080837E01FFEFEF1AFF0A0881802F90E08C
:101A30000E94510E892B11F0E701F3CF0D3239F4DA
:101A40007E0182E0E80EF11C098111E008C00B3232
:101A500029F47E0192E0E90EF11C098110E0E70112
:101A6000219743E050E066E871E0CE010E945A0EF3
:101A7000892BC1F4239645E050E061E871E0CE0186
:101A80000E945A0E892B09F42596C114D10419F02D
:101A9000F601D183C0831111F6C060E070E080E8E8
:101AA0009FE7FAC043E050E06EE771E0CE010E948C
:101AB0005A0E892B59F4C114D10409F4E9C0F2E09B
:101AC000EF0EF11CF601F182E082E2C020E030E08E
:101AD000A901C0E0D0E0F70180EDA82EA00E89E0BA
:101AE0008A1530F1912F9260B92E812F887012FFE4
:101AF00004C0811124C0219622C081112197A5E044
:101B0000B0E00E94750EDC01CB01880F991FAA1F5F
:101B1000BB1F9C01AD012A0D311D411D511D2839EE
:101B200089E93807480789E1580748F0166006C078
:101B30009EEFA9120AC013FD40C01860B12E8FEFAE
:101B4000E81AF80A00811B2DC6CF802F8F7D8534BF
:101B5000A1F580818D3211F4106106C08B3221F025
:101B6000319661E070E004C08181329662E070E0FD
:101B700080538A3018F0E61BF70B1FC060E070E05E
:101B800060389CE079075CF4DB01AA0FBB1FAA0F49
:101B9000BB1F6A0F7B1F660F771F680F711D319681
:101BA000DF0111978C9180538A3050F314FF03C0EA
:101BB000719561957109C60FD71F11FF08C0C11437
:101BC000D10429F0CF010197F60191838083CA01E6
:101BD000B9010E945508212F2370233019F04B01C1
:101BE0005C0106C04B015C01B7FAB094B7F8B09441
:101BF00020E030E0A901C501B4010E941A08882341
:101C000009F43EC0D7FF06C0D195C195D1090DE9B1
:101C100011E002C005EB11E06801F8E1CF1AD1082C
:101C200090E2E92EF12CCE15DF0574F0F801259134
:101C3000359145915491C501B4010E940C094B01A5
:101C40005C01CE19DF09EFCF04501109F594E79438
:101C50000C151D0541F78A2D880F8B2D881F8F3F8E
:101C600049F020E030E0A901C501B4010E941A0842
:101C7000811106C082E290E090937101809370011F
:101C8000C501B40109C060E070E080E89FEF04C0C6
:101C900060E070E080EC9FE7CDB7DEB7ECE00C943D
:101CA000980791110C94720E803219F0895085506A
:101CB000C8F70895FB01DC014150504088F08D9138
:101CC00081341CF08B350CF4805E659161341CF01E
:101CD0006B350CF4605E861B611171F3990B0895EE
:101CE000881BFCCF9927882708950E94800EA59F06
:101CF000900DB49F900DA49F800D911D1124089507
:101D0000A29FB001B39FC001A39F700D811D11243C
:101D1000911DB29F700D811D1124911D0895F8949D
:021D2000FFCFF3
:101D2200000000010000000000000E0100000000A1
:101D3200000200000000FC00000000000AD7A33CE3
:101D4200CDCC4C3D9A99193F2C010A0000000000AD
:101D5200FF016400000000004842256C757C257379
:101D62007C25640A000A50494420416E74692D574B
:0C1D7200696E6475702054657374000085
:00000001FF
